:100000000C945D000C9485000C9485000C94850084
:100010000C9485000C9485000C9485000C9485004C
:100020000C9485000C9485000C9485000C94CF02F0
:100030000C9485000C9485000C9485000C9485002C
:100040000C942D020C9485000C949D020C94770264
:100050000C9485000C9485000C9485000C9485000C
:100060000C9485000C9485000000000024002700FB
:100070002A0000000000250028002B0004040404CE
:100080000404040402020202020203030303030342
:10009000010204081020408001020408102001021F
:1000A00004081020000000080002010000030407FB
:1000B00000000000000000008B0311241FBECFEFE2
:1000C000D8E0DEBFCDBF11E0A0E0B1E0ECE1FDE0A3
:1000D00002C005900D92A036B107D9F722E0A0E644
:1000E000B1E001C01D92AF32B207E1F710E0CDE5FB
:1000F000D0E004C02197FE010E948606CC35D107CE
:10010000C9F70E94E8030C948C060C94000090E060
:10011000FC01EC55FF4F2491FC01E057FF4F349157
:10012000FC01E458FF4FE491EE23C9F0222339F09B
:10013000233001F1A8F4213019F1223029F1F0E047
:10014000EE0FFF1FEE58FF4FA591B4918FB7F894B3
:10015000EC91611126C030953E233C938FBF0895EA
:100160002730A9F02830C9F0243049F78091800069
:100170008F7D03C0809180008F7780938000DFCFD8
:1001800084B58F7784BDDBCF84B58F7DFBCF809125
:10019000B0008F778093B000D2CF8091B0008F7D78
:1001A000F9CF3E2BDACFAF92BF92CF92DF92EF9290
:1001B000FF920F931F93CF93DF936C017B018B0111
:1001C000040F151FEB015E01AE18BF08C017D10761
:1001D00059F06991D601ED91FC910190F081E02DEB
:1001E000C6010995892B79F7C501DF91CF911F9140
:1001F0000F91FF90EF90DF90CF90BF90AF90089558
:10020000FC01538D448D252F30E0842F90E0821B1C
:10021000930B541710F0CF96089501970895FC01A1
:10022000918D828D981761F0A28DAE0FBF2FB11DF9
:100230005D968C91928D9F5F9F73928F90E0089551
:100240008FEF9FEF0895FC01918D828D981731F00B
:10025000828DE80FF11D858D90E008958FEF9FEF5F
:1002600008952FB7F8948091660190916701A0914D
:100270006801B09169012FBF80937201909373015F
:10028000A0937401B09375018AE691E00E94230166
:1002900097FF26C02FB7F89480916601909167016F
:1002A000A0916801B09169012FBF409172015091F6
:1002B00073016091740170917501841B950BA60BFD
:1002C000B70B40916E0150916F0160917001709178
:1002D000710184179507A607B707B0F28FEF9FEF5C
:1002E0000895FC01918D228D892F90E0805C9F4FB5
:1002F000821B91098F73992708958AE691E00E94E5
:10030000710121E0892B09F420E0822F089580E01B
:1003100090E0892B29F00E947D0181110C9400004E
:100320000895FC01A48DA80FB92FB11DA35ABF4F8A
:100330002C91848D90E001968F739927848FA689E4
:10034000B7892C93A089B1898C91837080648C9338
:10035000938D848D981306C00288F389E02D8081E7
:100360008F7D80830895EF92FF920F931F93CF9319
:10037000DF93EC0181E0888F9B8D8C8D98131AC0E0
:10038000E889F989808185FF15C09FB7F894EE89C7
:10039000FF896083E889F989808183708064808324
:1003A0009FBF81E090E0DF91CF911F910F91FF906F
:1003B000EF900895F62E0B8D10E00F5F1F4F0F7317
:1003C0001127E02E8C8D8E110CC00FB607FCFACFD2
:1003D000E889F989808185FFF5CFCE010E949101DE
:1003E000F1CFEB8DEC0FFD2FF11DE35AFF4FF082A3
:1003F0009FB7F8940B8FEA89FB8980818062CFCF09
:10040000CF93DF93EC01888D8823B9F0AA89BB894B
:10041000E889F9898C9185FD03C0808186FD0DC036
:100420000FB607FCF7CF8C9185FFF2CF808185FF57
:10043000EDCFCE010E949101E9CFDF91CF910895D8
:10044000FC0101900020E9F73197AF01481B590BDF
:10045000BC018AE691E00C94D3001F920F920FB674
:100460000F9211242F933F938F939F93AF93BF933A
:100470008091660190916701A0916801B091690136
:100480003091650123E0230F2D3758F50196A11D0A
:10049000B11D209365018093660190936701A0933D
:1004A0006801B09369018091610190916201A0910E
:1004B0006301B09164010196A11DB11D809361019A
:1004C00090936201A0936301B0936401BF91AF91D7
:1004D0009F918F913F912F910F900FBE0F901F9082
:1004E000189526E8230F0296A11DB11DD2CF1F92A9
:1004F0000F920FB60F9211242F933F934F935F9358
:100500006F937F938F939F93AF93BF93EF93FF93DB
:100510008AE691E00E949101FF91EF91BF91AF9126
:100520009F918F917F916F915F914F913F912F910B
:100530000F900FBE0F901F9018951F920F920FB63D
:100540000F9211242F938F939F93EF93FF93E0913A
:100550007A01F0917B018081E0918001F09181012D
:1005600082FD1BC09081809183018F5F8F732091EA
:100570008401821741F0E0918301F0E0E659FE4FDB
:10058000958F80938301FF91EF919F918F912F9190
:100590000F900FBE0F901F9018958081F4CF1F927F
:1005A0000F920FB60F9211242F933F934F935F93A7
:1005B0006F937F938F939F93AF93BF93CF93DF936B
:1005C000EF93FF9380916001C0912B02D0E087FFF1
:1005D00024C01092850010928400809160018F5F8A
:1005E0008093600180916001082E000C990B8C179C
:1005F0009D0724F4809160018C30C4F180918400C7
:1006000090918500049680349C4908F47AC08091CA
:10061000840090918500049676C080916001082E38
:10062000000C990B8C179D07C4F6E09160018E2F8A
:10063000EE0F990BFC01EE0FFF1FE80FF91FE95FAA
:10064000FD4F808186FFC9CFE09160018E2FEE0FB4
:10065000990BFC01EE0FFF1FE80FF91FE95FFD4F3B
:10066000808160E08F730E948700B7CF2091840063
:1006700030918500E09160018E2FEE0F990BFC0107
:10068000EE0FFF1FE80FF91FE95FFD4F8181928197
:10069000820F931F9093890080938800E0916001FE
:1006A0008E2FEE0F990BFC01EE0FFF1FE80FF91FC5
:1006B000E95FFD4F808186FF11C0E09160018E2FC0
:1006C000EE0F990BFC01EE0FFF1FE80FF91FE95F1A
:1006D000FD4F808161E08F730E948700FF91EF9151
:1006E000DF91CF91BF91AF919F918F917F916F914A
:1006F0005F914F913F912F910F900FBE0F901F90E0
:10070000189580E49CE990938900809388008FEF8E
:1007100080936001E3CF10926D0110926C0188EE1E
:1007200093E0A0E0B0E080936E0190936F01A093FE
:100730007001B093710184E091E090936B0180931C
:100740006A0185EC90E0909377018093760184ECC8
:1007500090E0909379018093780180EC90E0909301
:100760007B0180937A0181EC90E090937D018093EE
:100770007C0182EC90E090937F0180937E0186EC77
:1007800090E09093810180938001109283011092F8
:100790008401109285011092860180912B028C3089
:1007A00098F491E0980F90932B0280932C0290E0A4
:1007B000FC01EE0FFF1FE80FF91FE95FFD4F88EB0B
:1007C0009BE09283818308958FEF80932C0208959C
:1007D000CF93DF93CDB7DEB7A1970FB6F894DEBF06
:1007E0000FBECDBF789484B5826084BD84B581602E
:1007F00084BD85B5826085BD85B5816085BD8091EC
:100800006E00816080936E00109281008091810063
:10081000826080938100809181008160809381005B
:10082000809180008160809380008091B10084601D
:100830008093B1008091B00081608093B00080917E
:100840007A00846080937A0080917A00826080933D
:100850007A0080917A00816080937A0080917A009A
:10086000806880937A001092C100E0917A01F09143
:100870007B0182E08083E0917601F0917701108224
:10088000E0917801F091790180E1808310928201FA
:10089000E0917E01F0917F0186E08083E0917C0110
:1008A000F0917D01808180618083E0917C01F091F5
:1008B0007D01808188608083E0917C01F0917D01E1
:1008C000808180688083E0917C01F0917D0180814E
:1008D0008F7D808380912C028C3008F068C0EEE917
:1008E000F0E02491EAE8F0E08491882399F090E028
:1008F000880F991FFC01E859FF4FA591B491FC01A5
:10090000EE58FF4F859194918FB7F894EC91E22BBC
:10091000EC938FBF80912C02282F30E0F901EE0F6D
:10092000FF1FE20FF31FE95FFD4F9081907C9E60F7
:10093000908310922D0210922E022CE0622F0E94C2
:100940007A06829FB001112430E020E0AB01420F13
:10095000531FFA01EE0FFF1FE40FF51FE95FFD4F74
:10096000908196FD16C02F5F3F4F2C30310571F7F7
:1009700081110FC01092800082E08093810010925C
:10098000850010928400B19A80916F0082608093FC
:100990006F00E0912C028E2F90E0FC01EE0FFF1F04
:1009A000E80FF91FE95FFD4F80818064808382E159
:1009B00091E00E9420028BE291E00E9420028EE2F0
:1009C00091E00E9420028BE291E00E942002BAE0B6
:1009D0004B2E512C612C712C18E5212E12E0312E5A
:1009E0008AE691E00E947101892B09F4F7C00E9408
:1009F0003101FC0197FD01C18D32910541F0C09795
:100A00000A9728F08AE691E00E940F01F0CFC12CEE
:100A1000D12C760110E0E130F105D9F0ED32F1058D
:100A200009F4E9C0CF01C0970A9798F4AAE0B0E0B2
:100A3000A70196010E9436066F01FF0FEE08FF081E
:100A4000C60ED71EE81EF91E40E3C41AD108E108FD
:100A5000F1088AE691E00E940F010E943101FC0139
:100A6000C0970A97C0F2E130F105A9F2112341F0D5
:100A7000F094E094D094C094C11CD11CE11CF11CF2
:100A800055EBC516D10408F0A9C0860180E2C8164E
:100A900082E0D806E4F580912D02E8E88E2E912CB4
:100AA000881A910887FD9394880C991C880C991CCE
:100AB000092C000CAA08BB0880912E029101281B6A
:100AC000310987FD3395220F331F220F331F032E69
:100AD000000C440B550B281939094A095B09D6014A
:100AE000053B110514F0A4EBB0E0B7FF02C0B0E085
:100AF000A0E00E94410624EB30E040E050E00E947C
:100B0000170669017A01C80CD91CEA1CFB1C20914C
:100B10002C022C3080F580912D02E8E8F0E0E81BF3
:100B2000F10987FDF395CF01880F991F880F991F51
:100B3000C816D90684F080912E02A101481B5109E4
:100B400087FD5395CA01880F991F880F991FC816F2
:100B5000D9060CF4C6010297880F991F4FB7F89475
:100B600030E0F901EE0FFF1FE20FF31FE95FFD4FC9
:100B7000928381834FBF84E591E00E942002680147
:100B8000110FEE08FF08F7FE3CC06DE28AE691E027
:100B90000E94B30122273327A9012C193D094E09D0
:100BA0005F0919A2CE0181967C01CA01B901A30196
:100BB00092010E944906605DF70162937F01211551
:100BC00031054105510589F7E114F10419F0C70118
:100BD0000E9420028BE291E00E94200240E050E05F
:100BE000452B09F4FDCE0E947D01882309F4F8CE3F
:100BF0000E940000F5CE11E02CCFC12CD12C760143
:100C00003FCFA701960119A2CE0181967C01CA01AE
:100C1000B901A30192010E944906605DF701629348
:100C20007F01211531054105510589F7CDCF052EED
:100C300097FB1EF400940E942E0657FD07D00E94D9
:100C4000490607FC03D04EF40C942E0650954095AF
:100C5000309521953F4F4F4F5F4F08959095809568
:100C6000709561957F4F8F4F9F4F08950E946B063F
:100C7000A59F900DB49F900DA49F800D911D1124F0
:100C80000895B7FF0C9436060E943606821B930B1C
:100C90000895A1E21A2EAA1BBB1BFD010DC0AA1FBD
:100CA000BB1FEE1FFF1FA217B307E407F50720F0D5
:100CB000A21BB30BE40BF50B661F771F881F991F50
:100CC0001A9469F760957095809590959B01AC0199
:100CD000BD01CF010895A29FB001B39FC001A39FA2
:100CE000700D811D1124911DB29F700D811D112465
:100CF000911D0895991B79E004C0991F961708F07B
:100D0000961B881F7A95C9F780950895EE0FFF1FEF
:0C0D10000590F491E02D0994F894FFCFB9
:100D1C0000000000B301D3000001000271010F01BB
:100D2C0023013D3D3D20536572766F2054657374ED
:100D3C00202843505029203D3D3D000D0A00547998
:100D4C00706520616E20616E676C652030E2809367
:100D5C0031383020616E6420707265737320456E7B
:100D6C00746572004D6F76656420746F3A200000D4
:00000001FF
