:100000000C9498000C94C0000C94C0000C94B60A98
:100010000C94C0000C94C0000C94C0000C94C00060
:100020000C94C0000C94C0000C94C0000C94C00050
:100030000C94C0000C94C0000C94C0000C94C00040
:100040000C94F5080C94C0000C9465090C943F09BD
:100050000C94C0000C94C0000C94C0000C94C00020
:100060000C9497090C94C00020494E565F4D343DC6
:100070000020494E565F4D333D0020494E565F4D9E
:10008000323D00494E565F4D313D003D3D3D2052D1
:100090006F7665723A2044524956453C2D3E534591
:1000A00052564F206F6E204348352C20534E4150FE
:1000B000206F6E20434836203D3D3D0020434836AA
:1000C0003D00204348353D00204348323D00434831
:1000D000313D00535256200044525620000000008B
:1000E00000240027002A0000000000250028002B23
:1000F00000040404040404040402020202020203D1
:1001000003030303030102040810204080010204DA
:10011000081020010204081020000000080002015D
:100120000000030407000000000000000000740C41
:1001300011241FBECFEFD8E0DEBFCDBF11E0A0E09D
:10014000B1E0ECE8F6E202C005900D92A633B107EB
:10015000D9F722E0A6E3B1E001C01D92AC3CB207A2
:10016000E1F710E0C8E9D0E004C02197FE010E9449
:10017000CC0FC739D107C9F70E94B90C0C944413AE
:100180000C9400000895089590E0FC01E75EFE4F96
:100190002491FC01EB5FFE4F3491FC01EF50FF4FC7
:1001A000E491EE23C9F0222339F0233001F1A8F4C1
:1001B000213019F1223029F1F0E0EE0FFF1FE95153
:1001C000FF4FA591B4918FB7F894EC91611126C0BF
:1001D00030953E233C938FBF08952730A9F02830F7
:1001E000C9F0243049F7809180008F7D03C0809151
:1001F00080008F7780938000DFCF84B58F7784BDB8
:10020000DBCF84B58F7DFBCF8091B0008F7780935B
:10021000B000D2CF8091B0008F7DF9CF3E2BDACFE6
:10022000CF93DF9390E0FC01EB5FFE4F24918F5062
:100230009F4FFC0184918823D1F090E0880F991F93
:10024000FC01E352FF4FA591B491FC01E951FF4F2E
:10025000C591D49161110EC09FB7F8948C91E22F93
:10026000E0958E238C932881E223E8839FBFDF9162
:10027000CF9108958FB7F894EC91E22BEC938FBF58
:10028000F6CF1F93CF93DF93182FEB0161E00E940D
:100290001001209739F460E0812FDF91CF911F91F9
:1002A0000C94C400CF3FD10511F461E0F5CFE12FEC
:1002B000F0E0E75EFE4FE491E33031F140F4E130ED
:1002C000B1F0E230E1F0C038D1057CF7E4CFE7309F
:1002D00029F1E83059F1E430B1F780918000806273
:1002E00080938000D0938B00C0938A0004C084B5B3
:1002F000806884BDC7BDDF91CF911F91089584B5FB
:10030000806284BDC8BDF7CF8091800080688093F3
:100310008000D0938900C0938800EDCF8091B00019
:1003200080688093B000C093B300E5CF8091B000A7
:1003300080628093B000C093B400DDCF3FB7F894E3
:1003400080919C0190919D01A0919E01B0919F018F
:1003500026B5A89B05C02F3F19F00196A11DB11D20
:100360003FBFBA2FA92F982F8827BC01CD01620F5C
:10037000711D811D911D42E0660F771F881F991F17
:100380004A95D1F708958F929F92AF92BF92CF92E4
:10039000DF92EF92FF924B015C010E949E016B0184
:1003A0007C010E949E016C197D098E099F09683E9F
:1003B000734081059105A8F321E0821A9108A108F4
:1003C000B10888EEC80E83E0D81EE11CF11C811430
:1003D0009104A104B10429F7FF90EF90DF90CF9032
:1003E000BF90AF909F908F900895AF92BF92CF92A1
:1003F000DF92EF92FF920F931F93CF93DF936C01E5
:100400007B018B01040F151FEB015E01AE18BF08C5
:10041000C017D10759F06991D601ED91FC91019077
:10042000F081E02DC6010995892B79F7C501DF918F
:10043000CF911F910F91FF90EF90DF90CF90BF90E1
:10044000AF900895FC01538D448D252F30E0842F0B
:1004500090E0821B930B541710F0CF9608950197EC
:100460000895FC01918D828D981761F0A28DAE0FD9
:10047000BF2FB11D5D968C91928D9F5F9F73928F60
:1004800090E008958FEF9FEF0895FC01918D828D8C
:10049000981731F0828DE80FF11D858D90E0089559
:1004A0008FEF9FEF0895FC01918D228D892F90E0B1
:1004B000805C9F4F821B91098F739927089586E175
:1004C00092E00E94530221E0892B09F420E0822F60
:1004D000089580E090E0892B29F00E945F0281114D
:1004E0000C9400000895FC01A48DA80FB92FB11D34
:1004F000A35ABF4F2C91848D90E001968F7399275A
:10050000848FA689B7892C93A089B1898C91837037
:1005100080648C93938D848D981306C00288F38930
:10052000E02D80818F7D80830895EF92FF920F935D
:100530001F93CF93DF93EC0181E0888F9B8D8C8D8F
:1005400098131AC0E889F989808185FF15C09FB783
:10055000F894EE89FF896083E889F9898081837046
:10056000806480839FBF81E090E0DF91CF911F91F5
:100570000F91FF90EF900895F62E0B8D10E00F5F16
:100580001F4F0F731127E02E8C8D8E110CC00FB6EC
:1005900007FCFACFE889F989808185FFF5CFCE0184
:1005A0000E947302F1CFEB8DEC0FFD2FF11DE35A8A
:1005B000FF4FF0829FB7F8940B8FEA89FB89808107
:1005C0008062CFCF0F931F93CF93DF938C01D0E046
:1005D000C0E0F801EC0FFD1F6491662341F086E155
:1005E00092E00E949502892B11F02196F2CFCE0164
:1005F000DF91CF911F910F910895CF93DF93EC017D
:10060000888D8823B9F0AA89BB89E889F9898C91FA
:1006100085FD03C0808186FD0DC00FB607FCF7CFB6
:100620008C9185FFF2CF808185FFEDCFCE010E94B6
:100630007302E9CFDF91CF91089520916701260FD2
:100640003327331F21323105ECF42091EC01FC01FA
:1006500090E080E0243069F082E00895A091670185
:100660002191AC01495B5E4FA40FB52FB11D2C93B6
:100670000196861798F380916701680F6093670170
:1006800080E0089581E008951092EC0181E080936C
:10069000EB011092C60161E082E10E94C40061E0BA
:1006A00083E10E94C400E9EBF0E080818E7F8083CB
:1006B00080818D7F808388E48093B80085E4809377
:1006C000BC0008951092A5011092A4011092F301AC
:1006D000109215020E94440382EC90E09093A301D3
:1006E0008093A20183EC90E09093A1018093A001FC
:1006F0000895CF93DF9391E0909346018823B9F05A
:10070000C091B800D091BA008091BC008A7B8093E0
:10071000BC0060E082E10E94C40060E083E10E94CE
:10072000C4000E944403D093BA00C093B800DF9184
:10073000CF9108958F929F92AF92BF92CF92DF9206
:10074000EF92FF920F931F93CF93DF93D0911502F7
:10075000D13208F0D7C0182FC09114020E949E0118
:100760006B017C018091EC0181116BC082E0809370
:10077000EC011093EB018FEF8093EA011092E901F5
:10078000D093E801A4EFB1E0E8ECF1E080E0D81309
:1007900091C01092C7018091C701CC0FC82BC093A4
:1007A000C7018091C601813009F088C01092C6014E
:1007B0000E949E016B017C018091C7018093BB0068
:1007C0008091EE019091EF01A091F001B091F101C3
:1007D000892B8A2B8B2BA1F00E949E010091EE01A8
:1007E0001091EF012091F0013091F1016C197D0918
:1007F0008E099F09061717072807390708F442C012
:100800008091BC0083FDD8CF85EC8093BC000E9412
:100810009E016B017C018091EC01823009F450C093
:100820008091EA018F3F09F46FC08091EA01803224
:1008300009F46CC08091EA01803309F469C084E056
:1008400026C08091EE019091EF01A091F001B0914E
:10085000F101892B8A2B8B2B09F484CF0E949E01F6
:100860008090EE019090EF01A090F001B090F10126
:100870006C197D098E099F0986169706A806B90688
:1008800008F070CF8091ED010E94790385E010920D
:10089000F301109215021092F201DF91CF911F9196
:1008A0000F91FF90EF90DF90CF90BF90AF909F900F
:1008B0008F9008959D9191938F5F69CF85EEA5CF1D
:1008C0008091EE019091EF01A091F001B091F101C2
:1008D000892B8A2B8B2B09F49ECF0E949E010091BD
:1008E000EE011091EF012091F0013091F1016C19AE
:1008F0007D098E099F09061717072807390708F091
:100900008ACFC0CF81E0C3CF80E0C1CF82E0BFCF2C
:1009100083E0BDCF1F93CF93DF93EA01122FDC0159
:1009200011968D919C91DC01ED91FC910280F381F7
:10093000E02D0995C817D90729F4812F0E949A0341
:1009400091E0811190E0892FDF91CF911F9108955F
:10095000CF93DF93EC018B818823A1F0888191E014
:100960009093F201809314021092F30110921502F9
:1009700081E00E949A0391E0811190E0892FDF913C
:10098000CF9108950E94620381E08B83CE010E9483
:10099000A804982F8111E2CFF1CF0895E091A5012D
:1009A0008091A401E81730F4F0E0EA55FE4F808111
:1009B00090E008958FEF9FEF08959091A5018091A9
:1009C000A4012FEF3FEF981748F4E92FF0E0EA5524
:1009D000FE4F208130E09F5F9093A501C9010895EB
:1009E0008091A4019091A501891B990B0895CF9244
:1009F000DF92EF92FF920F931F93CF93DF937C01CF
:100A0000CB018A012091F201222389F0EB016B01D5
:100A1000C40ED51ECC15DD0569F06991D701ED91A5
:100A2000FC910190F081E02DC7010995F3CF642F6F
:100A30000E941D03C801DF91CF911F910F91FF907C
:100A4000EF90DF90CF900895CF93DF931F92CDB7B3
:100A5000DEB769832091F2012223F9F0209115027B
:100A6000203258F021E030E0FC013383228390E013
:100A700080E00F90DF91CF9108958091F301E82FEE
:100A8000F0E0EC50FE4F998190838F5F8093F301EB
:100A90008093150281E090E0ECCF61E0CE010196F9
:100AA0000E941D03F7CF90E080E0089570E060E0C1
:100AB00089E00E94410170E060E086E00E9441010F
:100AC00070E060E083E00E94410170E060E085E05A
:100AD0000C9441011F93CF93DF93182F862F413041
:100AE0009FEF5907C4F0EA014F3F510519F014F088
:100AF000CFEFD0E057FD11C061E00E94C400BE01FD
:100B00006D38710514F06CE870E0812FDF91CF91A2
:100B10001F910C944101C1E0DFEF60E00E94C4002E
:100B200070E060E01C161D0684F3662777276C1BB7
:100B30007D0BE6CF8F929F92AF92BF92CF92DF92C2
:100B4000EF92FF92813D27E0920714F080ED97E04D
:100B5000883E23E0920714F488EE93E0DC01AC5D5C
:100B6000B540845B95408135910508F446C02FEF70
:100B700030E00E94C50F24EF31E040E050E00E94D9
:100B8000A60FCA01B9010E94FD1020E030E04FE736
:100B900053E40E9453106B017C01AC019B010E9445
:100BA000B211A70196010E94B2112DEC3CEC4CE46D
:100BB0005EE30E94B2114B015C012DEC3CEC4CE475
:100BC0005FE3C701B6010E94B2119B01AC01C501F0
:100BD000B4010E94E20F20E030E04FE753E40E94AE
:100BE000B2110E94C510CB01FF90EF90DF90CF9023
:100BF000BF90AF909F908F90089590E080E0F4CFE9
:100C00008F929F92AF92BF920F931F93CF93DF93D8
:100C1000CDB7DEB7A1970FB6F894DEBF0FBECDBF3C
:100C200019A2423008F44AE08E010F5D1F4F842E56
:100C3000912CB12CA12CA50194010E94840FE62FC8
:100C4000B901CA01EA3044F5E05DD801EE938D01A7
:100C5000232B242B252B79F790E080E0109769F067
:100C6000FD0101900020E9F73197AF014A1B5B0BB2
:100C7000BD0186E192E00E94F501A1960FB6F894BD
:100C8000DEBF0FBECDBFDF91CF911F910F91BF90FF
:100C9000AF909F908F900895E95CD7CFCF92DF926D
:100CA000EF92FF92CF93DF936B017C016DE286E1BF
:100CB00092E00E949502EC0166277727CB016C1920
:100CC0007D098E099F094AE00E9400068C0F9D1F36
:100CD000DF91CF91FF90EF90DF90CF90089542E0A9
:100CE00050E063E371E086E192E00C94F501BC0111
:100CF000990F880B990B4AE00C9400061F93CF9331
:100D0000DF9300D000D01F92CDB7DEB7182F90E050
:100D100080E00E94FB1020E030E048E452E40E94B2
:100D2000B21120E030E040E855E40E94B21120E02A
:100D300034E244E759E40E9453100E94C510611543
:100D400020E172078105910524F06FEF7FE080E0DC
:100D500090E0110F110F1A5F19831A821B826C83A6
:100D60007D838091C2029091C302FC012481358170
:100D70002530310590F0208131E03093F20120934D
:100D800014021092F3011092150221E045E050E0A8
:100D9000BE016F5F7F4F0E948A040F900F900F90EB
:100DA0000F900F90DF91CF911F910895CF93DF9314
:100DB00000D0CDB7DEB789836A838091C20290915B
:100DC000C302FC01248135812230310590F020815D
:100DD00031E03093F201209314021092F30110924B
:100DE000150221E042E050E0BE016F5F7F4F0E949C
:100DF0008A040F900F90DF91CF9108952F923F9228
:100E00004F925F926F927F928F929F92AF92BF921A
:100E1000CF92DF92EF92FF920F931F93CF93DF93C6
:100E20001F92CDB7DEB76B017C0120E030E040E8D7
:100E30005FE30E944E1087FDECC020E030EC4AE5F5
:100E400055E4C701B6010E94AD1118160CF4E8C0B4
:100E50006091C4027091C5028091C6029091C70250
:100E60000E94FB104B015C0120E030E040E855E4BB
:100E7000C701B6010E94B2119B01AC01C501B401CA
:100E80000E94531020E030E040E05FE30E94E20F58
:100E900020E030E040E85FE30E94E10F6B017C015D
:100EA00020E030E040E450E40E944E1087FDC0C0D6
:100EB00020E030E04FE753E4C701B6010E94AD11D6
:100EC00018160CF4BBC0C701B6010E94CC10962EB8
:100ED0001982E090C202F090C302D70114968D915E
:100EE0009C911597892B09F41AC18C9191E09093EC
:100EF000F201809314021092F3011092150220E087
:100F000041E050E0BE016F5F7F4FC7010E948A043D
:100F1000882309F404C18824839485EC382EF701D2
:100F2000C480D58001E0C114D10409F400E0A02EF2
:100F3000B12CD7012C900E949E012B013C01809185
:100F4000EC01811182C0102F8092EC010093EB0123
:100F5000BFEFB093EA011092E9018FEF800F809309
:100F6000E8018092C7018091C701220C282A2092B3
:100F7000C7018091C601813009F0A8C01092C60156
:100F80000E949E012B013C018091C7018093BB0010
:100F90008091EE019091EF01A091F001B091F101EB
:100FA000892B8A2B8B2BA1F00E949E012091EE01B0
:100FB0003091EF014091F0015091F10164197509F0
:100FC00086099709261737074807590708F45EC0AE
:100FD0008091BC0083FDD8CF3092BC000E949E015E
:100FE0002B013C018091EC01813009F473C08091A8
:100FF000E901801710F41091E901E8ECF1E0A6EAAC
:10100000B1E080E0811709F446C091919D938F5F14
:10101000F9CFC12CD12C40E8E42E4FE3F42E18CFA9
:10102000C12C30ECD32E3AE5E32E35E4F32E10CF6D
:10103000C12CD12C20E4E22EFE2C45CFC12CD12C8A
:101040009FE7E92E93E4F92E3ECF8091EE01909137
:10105000EF01A091F001B091F101892B8A2B8B2B2C
:1010600009F46DCF0E949E012091EE013091EF01B5
:101070004091F0015091F1016419750986099709B1
:10108000261737074807590708F059CF8091ED0117
:101090000E94790310E01092A5011093A4011A1583
:1010A0001B04E9F590E080E08A159B05A8F5D701BF
:1010B00011968D919C91DC01ED91FC910284F38558
:1010C000E02D0995898381E090E0EECFE5EEE09395
:1010D000BC0084CF8091EE019091EF01A091F001CE
:1010E000B091F101892B8A2B8B2B09F47BCF0E94C5
:1010F0009E012091EE013091EF014091F00150915D
:10110000F1016419750986099709261737074807F9
:10111000590708F067CFBACFCD2809F400CF19815D
:10112000612F6F76606180E00E94D606692D8EEF98
:101130000E94D606612F80E00E94D60665E070E02E
:1011400080E090E00E94C301612F606A80E00E940D
:10115000D6060F90DF91CF911F910F91FF90EF90E6
:10116000DF90CF90BF90AF909F908F907F906F90C7
:101170005F904F903F902F90089585ED8093BC0035
:101180008091EE019091EF01A091F001B091F101F9
:101190000796A11DB11D23E0B695A7959795879554
:1011A0002A95D1F72091BC0024FD03C01092EC01D8
:1011B00008954091EE015091EF016091F00170911E
:1011C000F101452B462B472B69F30097A105B1058B
:1011D00041F02AE22A95F1F700C00197A109B1096F
:1011E000E1CF8091ED010C9479031F920F920FB61D
:1011F0000F9211242F933F938F939F93AF93BF939D
:101200008091980190919901A0919A01B0919B01D0
:101210003091970123E0230F2D3758F50196A11D3A
:10122000B11D209397018093980190939901A09309
:101230009A01B0939B0180919C0190919D01A09196
:101240009E01B0919F010196A11DB11D80939C014B
:1012500090939D01A0939E01B0939F01BF91AF9188
:101260009F918F913F912F910F900FBE0F901F90E4
:10127000189526E8230F0296A11DB11DD2CF1F920B
:101280000F920FB60F9211242F933F934F935F93BA
:101290006F937F938F939F93AF93BF93EF93FF933E
:1012A00086E192E00E947302FF91EF91BF91AF91AE
:1012B0009F918F917F916F915F914F913F912F916E
:1012C0000F900FBE0F901F9018951F920F920FB6A0
:1012D0000F9211242F938F939F93EF93FF93E0919D
:1012E0002602F09127028081E0912C02F0912D02DC
:1012F00082FD1BC0908180912F028F5F8F732091A0
:101300003002821741F0E0912F02F0E0EA5EFD4FDB
:10131000958F80932F02FF91EF919F918F912F9145
:101320000F900FBE0F901F9018958081F4CF1F92E1
:101330000F920FB60F9211242F933F934F935F9309
:101340006F937F938F939F93AF93BF93EF93FF938D
:101350008091B900887F803609F44AC0F0F5883260
:1013600009F4A7C018F5803109F49BC0B8F48823AC
:1013700009F4F9C0883009F494C0FF91EF91BF914E
:10138000AF919F918F917F916F915F914F913F911D
:101390002F910F900FBE0F901F901895883109F470
:1013A00088C0803251F78093EA0114C0803409F478
:1013B0009DC040F48033B9F38833F9F68093EA0195
:1013C00085ECB0C0803509F485C0883509F496C035
:1013D000883499F60E94BD08D0CF883909F48CC0B2
:1013E00038F5883729F050F4883611F0803729F61F
:1013F00083E08093EC011092890157C0883809F48A
:101400007BC0803919F0803809F0B7CF809189010D
:10141000803208F071C0E091890181E08E0F8093E5
:1014200089018091BB00F0E0E759FE4F80833DC009
:10143000803B39F0E0F4803A09F479C0883A09F049
:101440009CCF84E08093EC011092680110926701B8
:10145000E091A201F091A3010995809167018111AA
:101460000FC081E0809367011092470109C0803C62
:1014700009F4A6CF883C09F4A3CF883B09F07DCFBF
:10148000E091680181E08E0F80936801F0E0E95BF4
:10149000FE4F80818093BB0090916801809167012D
:1014A00029C08091C7018093BB0085EC8093BC006C
:1014B00064CF9091E9018091E801981758F5E09187
:1014C000E90181E08E0F8093E901F0E0E853FE4FDF
:1014D0008081E9CFE091E90181E08E0F8093E901FD
:1014E0008091BB00F0E0E853FE4F80839091E901CA
:1014F0008091E8019817C8F285E8D8CFE091E9011A
:1015000081E08E0F8093E9018091BB00F0E0E85309
:10151000FE4F80838091EB0181115CCF81E080934D
:10152000C60184EA8093BC001092EC0126CF85ECC2
:101530008093BC001092EC0180918901803230F4DC
:10154000E0918901F0E0E759FE4F10826091890136
:1015500070E0E091A001F091A10189E691E0099588
:10156000109289010ACF1092EA0134CF1F920F9294
:101570000FB60F921124CF92DF92EF92FF920F934A
:101580001F932F933F934F935F936F937F938F930B
:101590009F93AF93BF93CF93DF93EF93FF93C3B129
:1015A000D0918A01DC27C0938A010E949E01D2FF5C
:1015B0000AC0C2FF45C0609342017093430180930B
:1015C000440190934501D3FF0AC0C3FF8EC06093CE
:1015D0003E0170933F018093400190934101D4FFFD
:1015E0000AC0C4FFD7C060933A0170933B01809357
:1015F0003C0190933D01D5FF0AC0C5FF20C1609317
:101600003601709337018093380190933901FF912F
:10161000EF91DF91CF91BF91AF919F918F917F918A
:101620006F915F914F913F912F911F910F91FF907B
:10163000EF90DF90CF900F900FBE0F901F901895F6
:1016400000914201109143012091440130914501E4
:10165000012B022B032B09F4B6CF0091420110910C
:10166000430120914401309145016B017C01C01A76
:10167000D10AE20AF30A97018601043813402105D2
:1016800031056CF100914201109143012091440118
:10169000309145016B017C01C01AD10AE20AF30ABC
:1016A000970186010533184021053105DCF40091CE
:1016B00042011091430120914401309145019B0169
:1016C000201B310B30930801209307016093930195
:1016D00070939401809395019093960174CF24E8C0
:1016E00033E0F0CF24E338E0EDCF00913E011091DC
:1016F0003F012091400130914101012B022B032B2E
:1017000009F46DCF00913E0110913F0120914001FD
:10171000309141016B017C01C01AD10AE20AF30A3F
:101720009701860104381340210531056CF10091C1
:101730003E0110913F0120914001309141016B0128
:101740007C01C01AD10AE20AF30A97018601053327
:10175000184021053105DCF400913E0110913F0154
:1017600020914001309141019B01201B310B3093AE
:101770000601209305016093930170939401809377
:101780009501909396012BCF24E833E0F0CF24E32A
:1017900038E0EDCF00913A0110913B0120913C01DE
:1017A00030913D01012B022B032B09F424CF009132
:1017B0003A0110913B0120913C0130913D016B01B8
:1017C0007C01C01AD10AE20AF30A970186010438A3
:1017D0001340210531056CF100913A0110913B0154
:1017E00020913C0130913D016B017C01C01AD10A6E
:1017F000E20AF30A970186010533184021053105F5
:10180000DCF400913A0110913B0120913C013091B0
:101810003D019B01201B310B3093040120930301F8
:101820006093930170939401809395019093960136
:10183000E2CE24E833E0F0CF24E338E0EDCF0091AE
:101840003601109137012091380130913901012B77
:10185000022B032B09F4DBCE0091360110913701E6
:1018600020913801309139016B017C01C01AD10AF5
:10187000E20AF30A97018601043813402105310575
:101880006CF10091360110913701209138013091AF
:1018900039016B017C01C01AD10AE20AF30A9701EF
:1018A00086010533184021053105DCF4009136012D
:1018B0001091370120913801309139019B01201B93
:1018C000310B3093020120930101609393017093D7
:1018D0009401809395019093960199CE24E833E08A
:1018E000F0CF24E338E0EDCFE6E1F2E0138212829C
:1018F00088EE93E0A0E0B0E084839583A683B7836D
:1019000023E131E03183208325EC30E035872487E3
:1019100024EC30E03787268720EC30E0318B208BB9
:1019200021EC30E0338B228B22EC30E0358B248BA2
:1019300026EC30E0378B268B118E128E138E148E90
:10194000E3EBF2E01382128284839583A683B7834C
:1019500085E291E091838083AFEBB2E080E48C93E9
:101960001296FC93EE93119714961C921E92139765
:101970000895789484B5826084BD84B5816084BD07
:1019800085B5826085BD85B5816085BD80916E001D
:10199000816080936E00109281008091810082604E
:1019A000809381008091810081608093810080918B
:1019B00080008160809380008091B100846080937A
:1019C000B1008091B00081608093B00080917A0076
:1019D000846080937A0080917A00826080937A009C
:1019E00080917A00816080937A0080917A0080688B
:1019F00080937A001092C10061E088E00E9410019B
:101A000061E087E00E94100161E082E00E94100125
:101A100061E084E00E94100161E089E00E94100111
:101A200061E086E00E94100161E083E00E94100105
:101A300061E085E00E9410010E94560560E08AE0A6
:101A40000E94100160E08BE00E94100160E08DE0D8
:101A50000E94100160E08CE00E94100183B180932D
:101A60008A018091680081608093680080916B009A
:101A70008C6380936B000E9462038091C2029091FC
:101A8000C302009711F00E94BB1286E090E00E9412
:101A90001F12EC018091C0029091C1022091BF02FF
:101AA00028839A8389831B8280E290E09D838C83C4
:101AB000D093C302C093C2020E94620381E08B8371
:101AC000CE010E94A8048823E1F060E880E00E9433
:101AD000D6066AE070E080E090E00E94C30180E4F6
:101AE00098E7ADE7B1E08093C4029093C502A0935C
:101AF000C602B093C70260E070E08AE794E40E94F7
:101B0000FE0660E070E088E492E40E94FE066CED60
:101B100075E080E00E947E066CED75E083E00E9437
:101B20007E066CED75E081E00E947E06E091260263
:101B3000F091270282E08083E0912202F09123025B
:101B40001082E0912402F091250280E180831092BE
:101B50002E02E0912A02F0912B0286E08083E09130
:101B60002802F0912902808180618083E09128021F
:101B7000F0912902808188608083E0912802F091B1
:101B80002902808180688083E0912802F0912902F7
:101B900080818F7D80838BE890E00E94E2020E942A
:101BA0006F0683E890E00E94E20290E080E00E94ED
:101BB00077068AE790E00E94E20290E080E00E94CF
:101BC000770681E790E00E94E20290E080E00E94C8
:101BD000770688E690E00E94E2024AE060E070E06A
:101BE000CB010E9400060E946F0680E0282E80E054
:101BF000382EF894E0900701F0900801009105015B
:101C000010910601A0900301B0900401C090010161
:101C1000D090020140909301509094016090950102
:101C200070909601789480910001882309F466C031
:101C300028E7A21625E0B20610F4109200010E94D7
:101C40009E0120910001222309F426C1641975091F
:101C500086099709613F79448240910508F01CC1CB
:101C6000C7010E949A052C01C8010E949A05092EFD
:101C7000000CAA0BBB0B052C000C66087708AC0106
:101C8000BD0144195509660977094F3F51056105A2
:101C9000710529F024F04FEF50E060E070E0413032
:101CA0002FEF52076207720724F441E05FEF6FEFF6
:101CB0007FEF840D951DA61DB71D8F3F9105A105D2
:101CC000B10529F024F08FEF90E0A0E0B0E0813082
:101CD0002FEF9207A207B20724F481E09FEFAFEF46
:101CE000BFEFC0919101D0919201C817D90784F438
:101CF00028968C179D079CF4EC0111C081E4A8166E
:101D000086E0B80608F49BCF21E02093000197CF2E
:101D10008C179D0724F42897C817D9076CF3D09324
:101D20009201C093910180908F0190909001841650
:101D3000950644F428E0820E911C481559055CF480
:101D40004A0109C04815590534F428E0821A91085F
:101D500084169506ACF39092900180928F01A401B5
:101D600068E089E00E946A05A40167E086E00E94BD
:101D70006A05AE0162E083E00E946A05AE0164E09C
:101D800085E00E946A056CED75E080E00E947E06A9
:101D90006CED75E083E00E947E0681E4C81686E063
:101DA000D80608F0ABC06CED75E081E00E947E06BD
:101DB0002FB7F8948091980190919901A0919A0180
:101DC000B0919B012FBF40918B0150918C0160918C
:101DD0008D0170918E01841B950BA60BB70BC397D9
:101DE000A105B10508F446C02FB7F8948091980179
:101DF00090919901A0919A01B0919B012FBF80937E
:101E00008B0190938C01A0938D01B0938E018091F2
:101E10000001882309F475C088ED90E00E94E20279
:101E20008EEC90E00E94E202B70190E080E04AE090
:101E30000E94000688EC90E00E94E202B80190E067
:101E400080E04AE00E94000682EC90E00E94E202FC
:101E5000B50190E080E04AE00E9400068CEB90E043
:101E60000E94E202B60190E080E04AE00E94000693
:101E70000E946F0662E070E080E090E00E94C30183
:101E80002114310409F4B5CE0E945F02882309F4BD
:101E9000B0CE0E940000ADCE0E9456051092920175
:101EA000109291011092900110928F0168EE73E0F0
:101EB000083E23E0120738F0B801013D87E018071B
:101EC00010F060ED77E080E00E947E0668EE73E03F
:101ED00028EEE21623E0F20640F0B70181EDE816A5
:101EE00087E0F80610F060ED77E083E00E947E0660
:101EF00021E4C21626E0D20608F455CF6EE977E059
:101F000054CF83ED90E08ACFA1E21A2EAA1BBB1B0F
:101F1000FD010DC0AA1FBB1FEE1FFF1FA217B307B5
:101F2000E407F50720F0A21BB30BE40BF50B661FCB
:101F3000771F881F991F1A9469F76095709580958F
:101F400090959B01AC01BD01CF010895052E97FB33
:101F50001EF400940E94BD0F57FD07D00E94840F0D
:101F600007FC03D04EF40C94BD0F5095409530956E
:101F700021953F4F4F4F5F4F0895909580957095F5
:101F800061957F4F8F4F9F4F08950E94D20FB7FFEB
:101F90000895821B930B0895EE0FFF1F0590F49197
:101FA000E02D0994A29FB001B39FC001A39F700DC3
:101FB000811D1124911DB29F700D811D1124911D51
:101FC00008955058BB27AA270E94F90F0C9473114B
:101FD0000E94651138F00E946C1120F039F49F3F87
:101FE00019F426F40C9462110EF4E095E7FB0C94BE
:101FF0005C11E92F0E94841158F3BA176207730726
:102000008407950720F079F4A6F50C94A6110EF438
:10201000E0950B2EBA2FA02D0B01B90190010C01F8
:10202000CA01A0011124FF27591B99F0593F50F410
:10203000503E68F11A16F040A22F232F342F442768
:10204000585FF3CF469537952795A795F040539560
:10205000C9F77EF41F16BA0B620B730B840BBAF030
:102060009150A1F0FF0FBB1F661F771F881FC2F79B
:102070000EC0BA0F621F731F841F48F487957795AF
:102080006795B795F7959E3F08F0B0CF9395880F69
:1020900008F09927EE0F9795879508950E943811BB
:1020A00008F481E008950E9467100C9473110E9457
:1020B0006C1158F00E94651140F029F45F3F29F03F
:1020C0000C945C1151110C94A7110C9462110E9494
:1020D000841168F39923B1F3552391F3951B550BA4
:1020E000BB27AA2762177307840738F09F5F5F4FEB
:1020F000220F331F441FAA1FA9F335D00E2E3AF02A
:10210000E0E832D091505040E695001CCAF72BD041
:10211000FE2F29D0660F771F881FBB1F2617370792
:102120004807AB07B0E809F0BB0B802DBF01FF27C4
:1021300093585F4F3AF09E3F510578F00C945C1134
:102140000C94A7115F3FE4F3983ED4F386957795FE
:102150006795B795F7959F5FC9F7880F911D96957D
:10216000879597F90895E1E0660F771F881FBB1FD9
:10217000621773078407BA0720F0621B730B840B86
:10218000BA0BEE1F88F7E09508950E94CC10689472
:10219000B1110C94A71108950E948C1188F09F57DB
:1021A00098F0B92F9927B751B0F0E1F0660F771F7B
:1021B000881F991F1AF0BA95C9F714C0B13091F071
:1021C0000E94A611B1E008950C94A611672F782FF4
:1021D0008827B85F39F0B93FCCF386957795679536
:1021E000B395D9F73EF490958095709561957F4FA2
:1021F0008F4F9F4F0895E89409C097FB3EF4909548
:102200008095709561957F4F8F4F9F4F9923A9F0CF
:10221000F92F96E9BB279395F6958795779567955E
:10222000B795F111F8CFFAF4BB0F11F460FF1BC0A2
:102230006F5F7F4F8F4F9F4F16C0882311F096E935
:1022400011C0772321F09EE8872F762F05C06623E3
:1022500071F096E8862F70E060E02AF09A95660F9C
:10226000771F881FDAF7880F9695879597F9089555
:10227000990F0008550FAA0BE0E8FEEF1616170697
:10228000E807F907C0F012161306E407F50798F0FF
:10229000621B730B840B950B39F40A2661F0232B18
:1022A000242B252B21F408950A2609F4A140A69594
:1022B0008FEF811D811D089597F99F6780E870E079
:1022C00060E008959FEF80EC089500240A941616AC
:1022D000170618060906089500240A941216130614
:1022E000140605060895092E0394000C11F48823A2
:1022F00052F0BB0F40F4BF2B11F460FF04C06F5FBE
:102300007F4F8F4F9F4F089557FD9058440F551F93
:1023100059F05F3F71F04795880F97FB991F61F067
:102320009F3F79F087950895121613061406551FDE
:10233000F2CF4695F1DF08C0161617061806991F4A
:10234000F1CF86957105610508940895E894BB273F
:1023500066277727CB0197F908950E94381108F472
:102360008FEF08950E94C5110C9473110E9465119E
:1023700038F00E946C1120F0952311F00C945C1140
:102380000C94621111240C94A7110E94841170F313
:10239000959FC1F3950F50E0551F629FF001729F0A
:1023A000BB27F00DB11D639FAA27F00DB11DAA1F19
:1023B000649F6627B00DA11D661F829F2227B00D66
:1023C000A11D621F739FB00DA11D621F839FA00DF1
:1023D000611D221F749F3327A00D611D231F849F41
:1023E000600D211D822F762F6A2F11249F57504098
:1023F0009AF0F1F088234AF0EE0FFF1FBB1F661F13
:10240000771F881F91505040A9F79E3F510580F0DB
:102410000C945C110C94A7115F3FE4F3983ED4F345
:10242000869577956795B795F795E7959F5FC1F77F
:10243000FE2B880F911D9695879597F908950F9318
:102440001F93CF93DF938230910510F482E090E0E8
:10245000E091CA02F091CB0230E020E0B0E0A0E0D1
:10246000309799F42115310509F44AC0281B390B1E
:1024700024303105D8F58A819B816115710589F178
:10248000FB0193838283FE0111C04081518102814F
:10249000138148175907E0F04817590799F4109726
:1024A00061F012960C93129713961C933296CF01FB
:1024B000DF91CF911F910F9108950093CA0210935D
:1024C000CB02F4CF2115310551F04217530738F0F4
:1024D000A901DB019A01BD01DF01F801C1CFEF01C4
:1024E000F9CF9093CB028093CA02CDCFFE01E20FC9
:1024F000F31F819391932250310939832883D7CFD9
:102500002091C8023091C902232B41F420910B0184
:1025100030910C013093C9022093C8022091090127
:1025200030910A012115310541F42DB73EB7409194
:102530000D0150910E01241B350BE091C802F09162
:10254000C902E217F307A0F42E1B3F0B2817390727
:1025500078F0AC014E5F5F4F2417350748F04E0FFF
:102560005F1F5093C9024093C802819391939FCFFC
:10257000F0E0E0E09CCFCF93DF930097E9F0FC011F
:10258000329713821282A091CA02B091CB02ED0160
:1025900030E020E01097A1F420813181820F931F59
:1025A0002091C8023091C9022817390709F061C08B
:1025B000F093C902E093C802DF91CF910895EA0138
:1025C000CE17DF07E8F54A815B819E014115510571
:1025D000B1F7E901FB83EA8349915991C40FD51FF3
:1025E000EC17FD0761F4808191810296840F951F9D
:1025F000E90199838883828193819B838A83F0E0B8
:10260000E0E012968D919C9113970097B9F52D916A
:102610003C911197CD010296820F931F2091C80221
:102620003091C9022817390739F6309751F51092C1
:10263000CB021092CA02B093C902A093C802BCCFC9
:10264000D383C28340815181840F951FC817D90756
:1026500061F44E5F5F4F88819981480F591F518304
:1026600040838A819B81938382832115310509F000
:10267000B0CFF093CB02E093CA029ECFFD01DC0104
:0C268000C0CF13821282D7CFF894FFCF96
:10268C00014C04DC05DC05DC050000CC02800000FC
:10269C000000009502F5012202FD025302310245B1
:1026AC0002000000002405F7045305CD04F004DDFE
:0626BC0004CE040D0A002B
:00000001FF
