:100000000C9458000C9480000C9480000C94800098
:100010000C9480000C9480000C9480000C94800060
:100020000C9480000C9480000C9480000C94800050
:100030000C9480000C9480000C9480000C94800040
:100040000C948A020C9480000C94FA020C94D40252
:100050000C9480000C9480000C9480000C94800020
:100060000C9480000C948000000000002300260007
:10007000290000000000250028002B0000000000DF
:10008000240027002A0004040404040404040202D7
:100090000202020203030303030301020408102007
:1000A00040800102040810200102040810205904B5
:1000B00011241FBECFEFD8E0DEBFCDBF11E0A0E01E
:1000C000B1E0E0E6F9E002C005900D92A834B10776
:1000D000D9F721E0A8E4B1E001C01D92AE3EB2071D
:1000E000E1F710E0C8E5D0E004C02197FE010E94CE
:1000F000A804C735D107C9F70E9471030C94AE0458
:100100000C940000CF93DF9390E0FC01E656FF4F84
:1001100024918A579F4FFC0184918823C1F090E07D
:10012000880F991FFC01E458FF4FC591D491FC0141
:10013000EE58FF4FA591B4919FB7F8948881E22FB4
:10014000E0958E2388838C91E823EC939FBFDF9109
:10015000CF9108953FB7F89480914D0190914E0151
:10016000A0914F01B091500126B5A89B05C02F3F2B
:1001700019F00196A11DB11D3FBFBA2FA92F982FCD
:100180008827BC01CD01620F711D811D911D42E0C8
:10019000660F771F881F991F4A95D1F70895AF9270
:1001A000BF92CF92DF92EF92FF920F931F93CF9364
:1001B000DF936C017B018B01040F151FEB015E01C6
:1001C000AE18BF08C017D10759F06991D601ED915B
:1001D000FC910190F081E02DC6010995892B79F7FA
:1001E000C501DF91CF911F910F91FF90EF90DF90AC
:1001F000CF90BF90AF900895FC01538D448D252F73
:1002000030E0842F90E0821B930B541710F0CF96B0
:10021000089501970895FC01918D828D981761F0E2
:10022000A28DAE0FBF2FB11D5D968C91928D9F5FF9
:100230009F73928F90E008958FEF9FEF0895FC01D8
:10024000918D828D981731F0828DE80FF11D858D8B
:1002500090E008958FEF9FEF0895FC01918D228D1E
:10026000892F90E0805C9F4F821B91098F739927A3
:10027000089581E591E00E942D0121E0892B09F488
:1002800020E0822F089580E090E0892B29F00E94E1
:10029000390181110C9400000895FC01A48DA80F70
:1002A000B92FB11DA35ABF4F2C91848D90E00196B8
:1002B0008F739927848FA689B7892C93A089B189D8
:1002C0008C91837080648C93938D848D981306C079
:1002D0000288F389E02D80818F7D80830895EF92DD
:1002E000FF920F931F93CF93DF93EC0181E0888FF0
:1002F0009B8D8C8D98131AC0E889F989808185FFC0
:1003000015C09FB7F894EE89FF896083E889F98961
:1003100080818370806480839FBF81E090E0DF9163
:10032000CF911F910F91FF90EF900895F62E0B8DB6
:1003300010E00F5F1F4F0F731127E02E8C8D8E1171
:100340000CC00FB607FCFACFE889F989808185FFD8
:10035000F5CFCE010E944D01F1CFEB8DEC0FFD2FBB
:10036000F11DE35AFF4FF0829FB7F8940B8FEA8993
:10037000FB8980818062CFCFCF93DF93EC01888DA2
:100380008823B9F0AA89BB89E889F9898C9185FD10
:1003900003C0808186FD0DC00FB607FCF7CF8C919E
:1003A00085FFF2CF808185FFEDCFCE010E944D0108
:1003B000E9CFDF91CF910895FC0101900020E9F78A
:1003C0003197AF01481B590BBC0181E591E00C94BA
:1003D000CF008F929F92AF92BF92CF92DF92EF9217
:1003E000FF920F931F93CF93DF93CDB7DEB7A19703
:1003F0000FB6F894DEBF0FBECDBF6B017C01F7FED8
:1004000041C06DE281E591E00E946F018C012227DD
:100410003327A9012C193D094E095F0919A2CE0104
:1004200081967C019AE0892E912CA12CB12CCA01D5
:10043000B901A50194010E948604605DF7016293F1
:100440007F01211531054105510589F790E080E0D4
:10045000309719F0CF010E94DC01800F911FA19607
:100460000FB6F894DEBF0FBECDBFDF91CF911F91C5
:100470000F91FF90EF90DF90CF90BF90AF909F9043
:100480008F900895AC019B0119A28E010F5D1F4F43
:100490008AE0C82ED12CE12CF12CCA01B901A701A8
:1004A00096010E948604605DF80162938F01211518
:1004B00031054105510589F790E080E0309779F2E8
:1004C000CF010E94DC01CBCF0F931F9390E0FC0182
:1004D000E656FF4F6491FC01EA57FF4FE491F0E0CC
:1004E000EE0FFF1FE859FF4F8591949100E315E748
:1004F00020E030E0462F0E942C0361157105810534
:10050000910529F06F5F7F4F8F4F9F4F9F701F9115
:100510000F9108951F920F920FB60F9211242F93EF
:100520003F938F939F93AF93BF9380914901909195
:100530004A01A0914B01B0914C013091480123E058
:10054000230F2D3758F50196A11DB11D20934801A9
:100550008093490190934A01A0934B01B0934C01C1
:1005600080914D0190914E01A0914F01B0915001A9
:100570000196A11DB11D80934D0190934E01A09352
:100580004F01B0935001BF91AF919F918F913F91D7
:100590002F910F900FBE0F901F90189526E8230FF4
:1005A0000296A11DB11DD2CF1F920F920FB60F92CE
:1005B00011242F933F934F935F936F937F938F9368
:1005C0009F93AF93BF93EF93FF9381E591E00E94D8
:1005D0004D01FF91EF91BF91AF919F918F917F91CD
:1005E0006F915F914F913F912F910F900FBE0F90A0
:1005F0001F9018951F920F920FB60F9211242F93F0
:100600008F939F93EF93FF93E0916101F0916201CB
:100610008081E0916701F091680182FD1BC09081AB
:1006200080916A018F5F8F7320916B01821741F077
:10063000E0916A01F0E0EF5AFE4F958F80936A01D6
:10064000FF91EF919F918F912F910F900FBE0F907F
:100650001F9018958081F4CFCF92DF92EF92FF9296
:100660000F931F93E82FF92F05C00150110921099D
:10067000310961F1908196239417B9F305C00150B7
:1006800011092109310911F1908196239413F7CFB3
:10069000C12CD12CE12CF12C0AC08FEFC81AD80A3A
:1006A000E80AF80A0C151D052E053F0579F0808132
:1006B0008623841791F36C2D7D2D8E2D9F2D1F91F8
:1006C0000F91FF90EF90DF90CF90089560E070E081
:1006D00080E090E01F910F91FF90EF90DF90CF901E
:1006E0000895789484B5826084BD84B5816084BDAA
:1006F00085B5826085BD85B5816085BD80916E00C0
:10070000816080936E0010928100809181008260F0
:10071000809381008091810081608093810080912D
:1007200080008160809380008091B100846080931C
:10073000B1008091B00081608093B00080917A0018
:10074000846080937A0080917A00826080937A003E
:1007500080917A00816080937A0080917A0080682D
:1007600080937A001092C100E0916101F0916201E2
:1007700082E08083E0915D01F0915E011082E09162
:100780005F01F091600180E1808310926901E09146
:100790006501F091660186E08083E0916301F0914C
:1007A0006401808180618083E0916301F091640144
:1007B000808188608083E0916301F0916401808191
:1007C00080688083E0916301F091640180818F7D76
:1007D000808382E00E94820083E00E94820084E0A5
:1007E0000E94820082E191E00E94DC018EE291E0B1
:1007F0000E94DC01C0E0D0E082E00E9464022B0194
:1008000083E00E9464024B0184E00E9464026B0159
:1008100081E391E00E94DC01B201550C880B990B39
:100820000E94E90187E391E00E94DC01B401990C88
:10083000880B990B0E94E9018FE391E00E94DC0193
:10084000B601DD0C880B990B0E94E9018EE291E064
:100850000E94DC010E94AA004B015C0184E6C82EC4
:10086000D12CE12CF12C0E94AA00681979098A097F
:100870009B09683E734081059105A8F321E0C21AE7
:10088000D108E108F10888EE880E83E0981EA11CCB
:10089000B11CC114D104E104F10429F7209709F433
:1008A000ABCF0E943901882309F4A6CF0E94000033
:1008B000A3CFE1E5F1E01382128288EE93E0A0E09D
:1008C000B0E084839583A683B78384E091E091832D
:1008D000808385EC90E09587848784EC90E097870F
:1008E000868780EC90E0918B808B81EC90E0938BFD
:1008F000828B82EC90E0958B848B86EC90E0978BDA
:10090000868B118E128E138E148E0895A1E21A2EEC
:10091000AA1BBB1BFD010DC0AA1FBB1FEE1FFF1FA3
:10092000A217B307E407F50720F0A21BB30BE40BF3
:10093000F50B661F771F881F991F1A9469F760953A
:100940007095809590959B01AC01BD01CF010895F4
:10095000EE0FFF1F0590F491E02D0994F894FFCF5E
:10096000000000006F01CF00FC00BC012D010B0155
:100970001F013D3D3D20524320496E707574205447
:10098000657374202843505029203D3D3D000D0AD9
:10099000004348313A200020204348323A200020CA
:0809A000204348333A20000017
:00000001FF
