:100000000C945D000C9485000C9485000C94850084
:100010000C9485000C9485000C9485000C9485004C
:100020000C9485000C9485000C9485000C9485003C
:100030000C9485000C9485000C9485000C9485002C
:100040000C94E1020C9485000C9451030C942B0346
:100050000C9485000C9485000C9485000C9485000C
:100060000C9485000C94850000000008000201003B
:100070000003040700000000000000000000000072
:10008000250028002B0000000000240027002A0083
:10009000040404040404040402020202020203032E
:1000A0000303030301020408102040800102040836
:1000B0001020010204081020220411241FBECFEFDB
:1000C000D8E0DEBFCDBF11E0A0E0B1E0EEEAF8E09D
:1000D00002C005900D92A633B107D9F721E0A6E33F
:1000E000B1E001C01D92AC3DB207E1F710E0CDE5F3
:1000F000D0E004C02197FE010E944F04CC35D10707
:10010000C9F70E9483030C9455040C94000090E0FE
:10011000FC01EC55FF4F249180579F4FFC018491C7
:10012000882399F090E0880F991FFC01EA57FF4F50
:10013000A591B491FC01E458FF4F859194918FB73C
:10014000F894EC91E22BEC938FBF089590E0FC01C2
:10015000E859FF4F2491FC01EC55FF4F3491FC010D
:10016000E057FF4FE491EE23C9F0222339F023300A
:1001700001F1A8F4213019F1223029F1F0E0EE0F5D
:10018000FF1FE458FF4FA591B4918FB7F894EC91FD
:10019000611126C030953E233C938FBF08952730D0
:1001A000A9F02830C9F0243049F7809180008F7D74
:1001B00003C0809180008F7780938000DFCF84B56B
:1001C0008F7784BDDBCF84B58F7DFBCF8091B0006E
:1001D0008F778093B000D2CF8091B0008F7DF9CF20
:1001E0003E2BDACFCF93DF93EC0185E00E948700AE
:1001F000209731F460E085E0DF91CF910C94A60068
:10020000CF3FD10511F461E0F6CFEDE6F0E0E491E7
:10021000E33029F140F4E130B1F0E230D9F0C038F8
:10022000D1058CF7E7CFE73021F1E83051F1E43028
:10023000B1F780918000806280938000D0938B0022
:10024000C0938A0004C084B5806884BDC7BDDF91B7
:10025000CF91089584B5806284BDC8BDF8CF8091E8
:100260008000806880938000D0938900C0938800CC
:10027000EECF8091B00080688093B000C093B3004F
:10028000E6CF8091B00080628093B000C093B4004C
:10029000DECF3FB7F8948091D8019091D901A09119
:1002A000DA01B091DB0126B5A89B05C02F3F19F0FC
:1002B0000196A11DB11D3FBFBA2FA92F982F8827E6
:1002C000BC01CD01620F711D811D911D42E0660FC1
:1002D000771F881F991F4A95D1F708958F929F9293
:1002E000AF92BF92CF92DF92EF92FF924B015C01EF
:1002F0000E9449016B017C010E9449016C197D0932
:100300008E099F09683E734081059105A8F321E09D
:10031000821A9108A108B10888EEC80E83E0D81EA1
:10032000E11CF11C81149104A104B10429F7FF9090
:10033000EF90DF90CF90BF90AF909F908F900895F7
:10034000AF92BF92CF92DF92EF92FF920F931F93E3
:10035000CF93DF936C017B018B01040F151FEB0121
:100360005E01AE18BF08C017D10759F06991D601D8
:10037000ED91FC910190F081E02DC6010995892B4A
:1003800079F7C501DF91CF911F910F91FF90EF9009
:10039000DF90CF90BF90AF900895FC01538D448DB6
:1003A000252F30E0842F90E0821B930B541710F020
:1003B000CF96089501970895FC01918D828D98172D
:1003C00061F0A28DAE0FBF2FB11D5D968C91928D05
:1003D0009F5F9F73928F90E008958FEF9FEF089536
:1003E000FC01918D828D981731F0828DE80FF11DFF
:1003F000858D90E008958FEF9FEF0895FC01918D1A
:10040000228D892F90E0805C9F4F821B91098F7312
:100410009927089586E391E00E94FE0121E0892B4F
:1004200009F420E0822F089580E090E0892B29F0E4
:100430000E940A0281110C9400000895FC01A48D11
:10044000A80FB92FB11DA35ABF4F2C91848D90E0F6
:1004500001968F739927848FA689B7892C93A089D9
:10046000B1898C91837080648C93938D848D981363
:1004700006C00288F389E02D80818F7D80830895F6
:10048000EF92FF920F931F93CF93DF93EC0181E0E4
:10049000888F9B8D8C8D98131AC0E889F98980818B
:1004A00085FF15C09FB7F894EE89FF896083E889BE
:1004B000F98980818370806480839FBF81E090E0B0
:1004C000DF91CF911F910F91FF90EF900895F62E3D
:1004D0000B8D10E00F5F1F4F0F731127E02E8C8DD7
:1004E0008E110CC00FB607FCFACFE889F98980811C
:1004F00085FFF5CFCE010E941E02F1CFEB8DEC0FF0
:10050000FD2FF11DE35AFF4FF0829FB7F8940B8F38
:10051000EA89FB8980818062CFCFCF93DF93EC01A2
:10052000888D8823B9F0AA89BB89E889F9898C91DB
:1005300085FD03C0808186FD0DC00FB607FCF7CF97
:100540008C9185FFF2CF808185FFEDCFCE010E9497
:100550001E02E9CFDF91CF910895CF93DF93682FEB
:1005600086E00E94A600D0E0C0E0CE010E94F2002A
:100570006FE070E080E090E00E946E012596C4304C
:1005800081E0D80791F76CE271E080E090E00E9492
:100590006E01CFEFD0E0CE010E94F2006AE070E081
:1005A00080E090E00E946E012597CB3F8FEFD80747
:1005B00091F76CE271E080E090E0DF91CF910C94D4
:1005C0006E011F920F920FB60F9211242F933F933B
:1005D0008F939F93AF93BF938091D4019091D50156
:1005E000A091D601B091D7013091D30123E0230F20
:1005F0002D3758F50196A11DB11D2093D30180938D
:10060000D4019093D501A093D601B093D7018091E6
:10061000D8019091D901A091DA01B091DB01019646
:10062000A11DB11D8093D8019093D901A093DA0147
:10063000B093DB01BF91AF919F918F913F912F912B
:100640000F900FBE0F901F90189526E8230F02966B
:10065000A11DB11DD2CF1F920F920FB60F92112480
:100660002F933F934F935F936F937F938F939F93BA
:10067000AF93BF93EF93FF9386E391E00E941E0236
:10068000FF91EF91BF91AF919F918F917F916F916A
:100690005F914F913F912F910F900FBE0F901F9040
:1006A00018951F920F920FB60F9211242F938F93CC
:1006B0009F93EF93FF93E0914601F0914701808172
:1006C000E0914C01F0914D0182FD1BC09081809121
:1006D0004F018F5F8F7320915001821741F0E0919D
:1006E0004F01F0E0EA5CFE4F958F80934F01FF9140
:1006F000EF919F918F912F910F900FBE0F901F90B0
:1007000018958081F4CF789484B5826084BD84B5D7
:10071000816084BD85B5826085BD85B5816085BDFC
:1007200080916E00816080936E00109281008091B4
:10073000810082608093810080918100816080933C
:100740008100809180008160809380008091B10061
:1007500084608093B1008091B00081608093B0008C
:1007600080917A00846080937A0080917A00826020
:1007700080937A0080917A00816080937A008091E2
:100780007A00806880937A001092C100E09146015F
:10079000F091470182E08083E0914201F0914301B2
:1007A0001082E0914401F091450180E18083109234
:1007B0004E01E0914A01F0914B0186E08083E09187
:1007C0004801F0914901808180618083E091480176
:1007D000F0914901808188608083E0914801F09127
:1007E0004901808180688083E0914801F09149014E
:1007F00080818F7D808385E00E94870086E00E9453
:1008000087004FE150E062E171E086E391E00E94F1
:10081000A00142E050E062E371E086E391E00E94D3
:10082000A001C0E0D0E081E00E94AD0280E00E9423
:10083000AD022097C1F30E940A028823A1F30E940F
:100840000000F1CFE6E3F1E01382128288EE93E03C
:10085000A0E0B0E084839583A683B78384E091E031
:100860009183808385EC90E09587848784EC90E089
:100870009787868780EC90E0918B808B81EC90E06D
:10088000938B828B82EC90E0958B848B86EC90E04E
:10089000978B868B118E128E138E148E0895EE0F09
:0E08A000FF1F0590F491E02D0994F894FFCF0E
:1008AE00000000004002A001CD018D02FE01DC011E
:1008BE00F0013D3D3D204D6F746F7220447269769C
:1008CE0065722054657374202843505029203D3D95
:0608DE003D000D0A0000C0
:00000001FF
