:100000000C94C3000C94EB000C94EB000C947C0556
:100010000C94EB000C94EB000C94EB000C94EB00B4
:100020000C94EB000C94EB000C94EB000C94EB00A4
:100030000C94EB000C94EB000C94EB000C94EB0094
:100040000C94DA040C94EB000C944A050C942405EF
:100050000C94EB000C94EB000C94EB000C94EB0074
:100060000C94EB000C94EB0020494E564552545F23
:100070005448524F54544C453D0020494E565F540D
:1000800055524E3D0020494E565F4D343D002049AB
:100090004E565F4D333D0020494E565F4D323D0078
:1000A000494E565F4D313D00452D73746F70206F82
:1000B0006E2044313320284C4F57202D3E2073743E
:1000C0006F70292E20576865656C73206F666620F7
:1000D00067726F756E642066697273742E003D3DA1
:1000E0003D20526F766572204172636164652028FD
:1000F000434831404431302073746565722C20438D
:10010000483240443131207468726F74746C6529D0
:10011000203D3D3D0020523D0020204C3D0020432D
:1001200048323D004348313D0000000000240027D4
:10013000002A0000000000250028002B000000001D
:10014000002300260029000404040404040404021B
:100150000202020202030303030303010204081064
:100160002040800102040810200102040810200031
:100170000000080002010000030407000000000066
:10018000000000008D0811241FBECFEFD8E0DEBFB5
:10019000CDBF11E0A0E0B1E0E2E5F6E102C00590DC
:1001A0000D92AA31B107D9F721E0AAE1B1E001C06F
:1001B0001D92A53DB207E1F710E0C3ECD0E004C00A
:1001C0002197FE010E940209C23CD107C9F70E9493
:1001D00077060C94270B0C940000833081F028F4F0
:1001E000813099F08230A9F008958730A9F08830E5
:1001F000C9F08430B1F4809180008F7D03C080917C
:1002000080008F7780938000089584B58F7784BDB8
:10021000089584B58F7DFBCF8091B0008F77809358
:10022000B00008958091B0008F7DF9CFCF93DF9318
:10023000ECE7F1E08491E8E6F1E0D491E4E5F1E067
:10024000C491CC23A1F081110E94ED00EC2FF0E0CD
:10025000EE0FFF1FE35CFE4FA591B491EC91ED23EF
:1002600081E090E009F480E0DF91CF91089580E093
:1002700090E0FACF1F93CF93DF93282F30E0F9015E
:10028000E159FE4F8491F901E55AFE4FD491F901ED
:10029000E95BFE4FC491CC23A9F0162F81110E9477
:1002A000ED00EC2FF0E0EE0FFF1FED5CFE4FA5918F
:1002B000B4918FB7F894EC91111108C0D095DE235A
:1002C000DC938FBFDF91CF911F910895DE2BF8CF84
:1002D000CF93DF9390E0FC01E55AFE4F2491895BB8
:1002E0009E4FFC0184918823C9F090E0880F991FEC
:1002F000FC01E75DFE4FA591B491FC01ED5CFE4F62
:10030000C591D49161110DC09FB7F8948C9120953F
:1003100082238C938881282328839FBFDF91CF91EC
:100320000895623051F49FB7F8943C91822F8095E4
:1003300083238C93E8812E2BEFCF8FB7F894EC9129
:100340002E2B2C938FBFEACF1F93CF93DF93182FC1
:10035000EB0161E00E946801209739F460E0812F91
:10036000DF91CF911F910C943A01CF3FD10511F449
:1003700061E0F5CFE12FF0E0E159FE4FE491E33089
:1003800031F140F4E130B1F0E230E1F0C038D105B4
:100390007CF7E4CFE73029F1E83059F1E430B1F7E8
:1003A00080918000806280938000D0938B00C09306
:1003B0008A0004C084B5806884BDC7BDDF91CF9139
:1003C0001F91089584B5806284BDC8BDF7CF809128
:1003D0008000806880938000D0938900C09388005B
:1003E000EDCF8091B00080688093B000C093B300DF
:1003F000E5CF8091B00080628093B000C093B400DC
:10040000DDCF3FB7F8948091340190913501A091F0
:100410003601B091370126B5A89B05C02F3F19F0D2
:100420000196A11DB11D3FBFBA2FA92F982F882774
:10043000BC01CD01620F711D811D911D42E0660F4F
:10044000771F881F991F4A95D1F708958F929F9221
:10045000AF92BF92CF92DF92EF92FF924B015C017D
:100460000E9401026B017C010E9401026C197D094E
:100470008E099F09683E734081059105A8F321E02C
:10048000821A9108A108B10888EEC80E83E0D81E30
:10049000E11CF11C81149104A104B10429F7FF901F
:1004A000EF90DF90CF90BF90AF909F908F90089586
:1004B000AF92BF92CF92DF92EF92FF920F931F9372
:1004C000CF93DF936C017B018B01040F151FEB01B0
:1004D0005E01AE18BF08C017D10759F06991D60167
:1004E000ED91FC910190F081E02DC6010995892BD9
:1004F00079F7C501DF91CF911F910F91FF90EF9098
:10050000DF90CF90BF90AF900895FC01538D448D44
:10051000252F30E0842F90E0821B930B541710F0AE
:10052000CF96089501970895FC01918D828D9817BB
:1005300061F0A28DAE0FBF2FB11D5D968C91928D93
:100540009F5F9F73928F90E008958FEF9FEF0895C4
:10055000FC01918D828D981731F0828DE80FF11D8D
:10056000858D90E008958FEF9FEF0895FC01918DA8
:10057000228D892F90E0805C9F4F821B91098F73A1
:100580009927089588E391E00E94B60221E0892B23
:1005900009F420E0822F089580E090E0892B29F073
:1005A0000E94C20281110C9400000895FC01A48DE8
:1005B000A80FB92FB11DA35ABF4F2C91848D90E085
:1005C00001968F739927848FA689B7892C93A08968
:1005D000B1898C91837080648C93938D848D9813F2
:1005E00006C00288F389E02D80818F7D8083089585
:1005F000EF92FF920F931F93CF93DF93EC0181E073
:10060000888F9B8D8C8D98131AC0E889F989808119
:1006100085FF15C09FB7F894EE89FF896083E8894C
:10062000F98980818370806480839FBF81E090E03E
:10063000DF91CF911F910F91FF90EF900895F62ECB
:100640000B8D10E00F5F1F4F0F731127E02E8C8D65
:100650008E110CC00FB607FCFACFE889F9898081AA
:1006600085FFF5CFCE010E94D602F1CFEB8DEC0FC6
:10067000FD2FF11DE35AFF4FF0829FB7F8940B8FC7
:10068000EA89FB8980818062CFCF0F931F93CF933C
:10069000DF938C01D0E0C0E0F801EC0FFD1F649106
:1006A000662341F088E391E00E94F802892B11F063
:1006B0002196F2CFCE01DF91CF911F910F91089536
:1006C000CF93DF93EC01888D8823B9F0AA89BB8989
:1006D000E889F9898C9185FD03C0808186FD0DC074
:1006E0000FB607FCF7CF8C9185FFF2CF808185FF95
:1006F000EDCFCE010E94D602E9CFDF91CF910895D0
:1007000070E060E089E00E94A40170E060E086E0B3
:100710000E94A40170E060E083E00E94A40170E008
:1007200060E085E00C94A4011F93CF93DF93182F12
:10073000862F41309FEF5907C4F0EA014F3F510522
:1007400019F014F0CFEFD0E057FD11C061E00E9426
:100750003A01BE016D38710514F06CE870E0812F2C
:10076000DF91CF911F910C94A401C1E0DFEF60E015
:100770000E943A0170E060E01C161D0684F36627B3
:1007800077276C1B7D0BE6CF0F931F93CF93DF93DF
:10079000EC018B01AB0168E089E00E949403A801A1
:1007A00067E086E00E949403AE0162E083E00E946D
:1007B0009403AE0164E085E0DF91CF911F910F912A
:1007C0000C9494038F929F92AF92BF92CF92DF923C
:1007D000EF92FF92813D27E0920714F080ED97E0C1
:1007E000883E23E0920714F488EE93E0DC01AC5DD0
:1007F000B540845B95408135910508F446C02FEFE4
:1008000030E00E94FB0824EF31E040E050E00E941D
:10081000DC08CA01B9010E942E0A20E030E04FE74F
:1008200053E40E9484096B017C01AC019B010E948E
:10083000BA0AA70196010E94BA0A2DEC3CEC4CE4DE
:100840005EE30E94BA0A4B015C012DEC3CEC4CE4E7
:100850005FE3C701B6010E94BA0A9B01AC01C50162
:10086000B4010E94180920E030E04FE753E40E94F1
:10087000BA0A0E94F609CB01FF90EF90DF90CF906B
:10088000BF90AF909F908F90089590E080E0F4CF5C
:100890008F929F92AF92BF920F931F93CF93DF934C
:1008A000CDB7DEB7A1970FB6F894DEBF0FBECDBFB0
:1008B00019A2423008F44AE08E010F5D1F4F842ECA
:1008C000912CB12CA12CA50194010E94BA08E62F0D
:1008D000B901CA01EA3044F5E05DD801EE938D011B
:1008E000232B242B252B79F790E080E0109769F0DB
:1008F000FD0101900020E9F73197AF014A1B5B0B26
:10090000BD0188E391E00E945802A1960FB6F894C9
:10091000DEBF0FBECDBFDF91CF911F910F91BF9072
:10092000AF909F908F900895E95CD7CF42E050E060
:1009300066E171E088E391E00C945802CF92DF9277
:10094000EF92FF92CF93DF936C01990FEE08FF08AF
:10095000F7FE19C06DE288E391E00E94F802EC0115
:1009600066277727CB016C197D098E099F094AE01C
:100970000E9448048C0F9D1FDF91CF91FF90EF9054
:10098000DF90CF9008954AE0C701B601DF91CF9183
:10099000FF90EF90DF90CF900C944804CF93DF93BB
:1009A0000E949E04EC010E9496048C0F9D1FDF9113
:1009B000CF9108951F920F920FB60F9211242F938B
:1009C0003F938F939F93AF93BF938091300190910A
:1009D0003101A0913201B091330130912F0123E018
:1009E000230F2D3758F50196A11DB11D20932F011E
:1009F0008093300190933101A0933201B093330181
:100A00008091340190913501A0913601B091370168
:100A10000196A11DB11D8093340190933501A093DF
:100A20003601B0933701BF91AF919F918F913F9164
:100A30002F910F900FBE0F901F90189526E8230F4F
:100A40000296A11DB11DD2CF1F920F920FB60F9229
:100A500011242F933F934F935F936F937F938F93C3
:100A60009F93AF93BF93EF93FF9388E391E00E942E
:100A7000D602FF91EF91BF91AF919F918F917F919E
:100A80006F915F914F913F912F910F900FBE0F90FB
:100A90001F9018951F920F920FB60F9211242F934B
:100AA0008F939F93EF93FF93E0914801F091490159
:100AB0008081E0914E01F0914F0182FD1BC0908139
:100AC000809151018F5F8F7320915201821741F005
:100AD000E0915101F0E0E85CFE4F958F8093510169
:100AE000FF91EF919F918F912F910F900FBE0F90DB
:100AF0001F9018958081F4CF1F920F920FB60F921E
:100B00001124CF92DF92EF92FF920F931F932F93B6
:100B10003F934F935F936F937F938F939F93AF9385
:100B2000BF93CF93DF93EF93FF93C3B1D091220193
:100B3000DC27C09322010E940102D2FF0AC0C2FF3B
:100B40002DC060931E0170931F018093200190932C
:100B50002101D3FF0AC0C3FF75C060931A017093CF
:100B60001B0180931C0190931D01FF91EF91DF9178
:100B7000CF91BF91AF919F918F917F916F915F9135
:100B80004F913F912F911F910F91FF90EF90DF9028
:100B9000CF900F900FBE0F901F90189500911E01DF
:100BA00010911F012091200130912101012B022B76
:100BB000032B79F200911E0110911F012091200159
:100BC000309121016B017C01C01AD10AE20AF30ABB
:100BD0009701860104381340210531056CF100911D
:100BE0001E0110911F0120912001309121016B0104
:100BF0007C01C01AD10AE20AF30A97018601053383
:100C0000184021053105DCF400911E0110911F01EF
:100C100020912001309121019B01201B310B309349
:100C200003012093020160932B0170932C018093A8
:100C30002D0190932E018DCF24E833E0F0CF24E3F3
:100C400038E0EDCF00911A0110911B0120911C0199
:100C500030911D01012B022B032B09F486CF00914B
:100C60001A0110911B0120911C0130911D016B0193
:100C70007C01C01AD10AE20AF30A970186010438FE
:100C80001340210531056CF100911A0110911B01EF
:100C900020911C0130911D016B017C01C01AD10A09
:100CA000E20AF30A97018601053318402105310550
:100CB000DCF400911A0110911B0120911C0130916C
:100CC0001D019B01201B310B30930101209300017A
:100CD00060932B0170932C0180932D0190932E0132
:100CE00044CF24E833E0F0CF24E338E0EDCF78942C
:100CF00084B5826084BD84B5816084BD85B5826021
:100D000085BD85B5816085BD80916E0081608093D1
:100D10006E0010928100809181008260809381003A
:100D2000809181008160809381008091800081604A
:100D3000809380008091B10084608093B1008091A5
:100D4000B00081608093B00080917A0084608093CD
:100D50007A0080917A00826080937A0080917A0094
:100D6000816080937A0080917A00806880937A0015
:100D70001092C10061E088E00E94680161E087E0B4
:100D80000E94680161E082E00E94680161E084E005
:100D90000E94680161E089E00E94680161E086E0EC
:100DA0000E94680161E083E00E94680161E085E0E3
:100DB0000E9468010E94800362E08DE00E94680149
:100DC00060E08AE00E94680160E08BE00E946801B8
:100DD00083B18093220180916800816080936800D4
:100DE00080916B008C6080936B00E0914801F091E2
:100DF000490182E08083E0914401F0914501108235
:100E0000E0914601F091470180E18083109250010A
:100E1000E0914C01F0914D0186E08083E0914A0120
:100E2000F0914B01808180618083E0914A01F091D3
:100E30004B01808188608083E0914A01F0914B01F1
:100E4000808180688083E0914A01F0914B0180812C
:100E50008F7D80838EED90E00E9445030E94960472
:100E600088EA90E00E9445030E94960480EA90E0A0
:100E70000E94450390E080E00E949E0487E990E094
:100E80000E94450390E080E00E949E048EE890E07E
:100E90000E94450390E080E00E949E0485E890E077
:100EA0000E94450390E080E00E94CE048AE790E033
:100EB0000E94450381E090E00E949E0488E690E055
:100EC0000E94450390E080E00E94CE0440E0E42EC2
:100ED00040E0F42E0E941601892B69F40E948003E1
:100EE0000E941601892B39F465E070E080E090E003
:100EF0000E942602F5CFF89400910201109103019F
:100F0000C0910001D091010180902B0190902C01A3
:100F1000A0902D01B0902E0178940E9401026819D2
:100F200079098A099B09613F79448240910500F162
:100F300010922A0110922901109228011092270183
:100F400070E060E090E080E00E94C40362E070E046
:100F500080E090E00E942602E114F10409F4BACF87
:100F60000E94C202882309F4B5CF0E940000B2CFCC
:100F7000C8010E94E2036C01CE010E94E203AC01B1
:100F8000990F660B770B882799278C199D09092ED5
:100F9000000CAA0BBB0B4A015B01881A990AAA0A2A
:100FA000BB0A2FEF82169104A104B10429F024F0AA
:100FB000812C912C54018A9421E082162FEF920605
:100FC000A206B20634F48824839499249A94A92C16
:100FD000B92C480F591F6A1F7B1F4F3F51056105F0
:100FE000710529F024F04FEF50E060E070E04130EF
:100FF0008FEF58076807780724F441E05FEF6FEF41
:101000007FEF8091290190912A018417950734F48C
:101010000896481759074CF4CA0107C048175907E2
:1010200024F4089784179507BCF390932A018093C2
:1010300029016091270170912801681579053CF418
:10104000685F7F4F8616970654F4B40108C0861671
:1010500097062CF46850710968157905B4F37093FC
:101060002801609327010E94C4032FB7F894809150
:10107000300190913101A0913201B09133012FBF25
:101080004091230150912401609125017091260126
:10109000841B950BA60BB70BC397A105B10508F4EC
:1010A00055CF2FB7F8948091300190913101A091E4
:1010B0003201B09133012FBF80932301909324011B
:1010C000A0932501B093260184E291E00E9445039C
:1010D000B80190E080E04AE00E9448048EE191E08F
:1010E0000E944503BE0190E080E04AE00E9448046F
:1010F00089E191E00E9445038091290190912A01A4
:101100000E949E0485E191E00E94450380912701A1
:10111000909128010E94CE0419CFE8E3F1E01382F8
:10112000128288EE93E0A0E0B0E084839583A683EA
:10113000B78388E091E09183808385EC90E0958788
:10114000848784EC90E09787868780EC90E0918B91
:10115000808B81EC90E0938B828B82EC90E0958B7E
:10116000848B86EC90E0978B868B118E128E138E7B
:10117000148E0895A1E21A2EAA1BBB1BFD010DC0FF
:10118000AA1FBB1FEE1FFF1FA217B307E407F50737
:1011900020F0A21BB30BE40BF50B661F771F881F13
:1011A000991F1A9469F760957095809590959B01A9
:1011B000AC01BD01CF010895052E97FB1EF40094EC
:1011C0000E94F30857FD07D00E94BA0807FC03D01D
:1011D0004EF40C94F30850954095309521953F4F6F
:1011E0004F4F5F4F089590958095709561957F4F13
:1011F0008F4F9F4F08950E940809B7FF0895821BE3
:10120000930B0895EE0FFF1F0590F491E02D0994C4
:10121000A29FB001B39FC001A39F700D811D112437
:10122000911DB29F700D811D1124911D089550587C
:10123000BB27AA270E942F090C94800A0E94720AD9
:1012400038F00E94790A20F039F49F3F19F426F40F
:101250000C946F0A0EF4E095E7FB0C94690AE92FF1
:101260000E94910A58F3BA1762077307840795071B
:1012700020F079F4A6F50C94B30A0EF4E0950B2E49
:10128000BA2FA02D0B01B90190010C01CA01A001D8
:101290001124FF27591B99F0593F50F4503E68F133
:1012A0001A16F040A22F232F342F4427585FF3CF74
:1012B000469537952795A795F0405395C9F77EF445
:1012C0001F16BA0B620B730B840BBAF09150A1F08E
:1012D000FF0FBB1F661F771F881FC2F70EC0BA0F14
:1012E000621F731F841F48F4879577956795B7959C
:1012F000F7959E3F08F0B0CF9395880F08F0992797
:10130000EE0F9795879508950E9498090C94800A8E
:101310000E94790A58F00E94720A40F029F45F3F57
:1013200029F00C94690A51110C94B40A0C946F0AB8
:101330000E94910A68F39923B1F3552391F3951B09
:10134000550BBB27AA2762177307840738F09F5FE6
:101350005F4F220F331F441FAA1FA9F335D00E2E53
:101360003AF0E0E832D091505040E695001CCAF7C0
:101370002BD0FE2F29D0660F771F881FBB1F261783
:1013800037074807AB07B0E809F0BB0B802DBF015A
:10139000FF2793585F4F3AF09E3F510578F00C9429
:1013A000690A0C94B40A5F3FE4F3983ED4F386953F
:1013B00077956795B795F7959F5FC9F7880F911D4A
:1013C0009695879597F90895E1E0660F771F881F36
:1013D000BB1F621773078407BA0720F0621B730BE9
:1013E000840BBA0BEE1F88F7E09508950E94FD0963
:1013F0006894B1110C94B40A08950E94990A88F077
:101400009F5798F0B92F9927B751B0F0E1F0660FC8
:10141000771F881F991F1AF0BA95C9F714C0B13009
:1014200091F00E94B30AB1E008950C94B30A672FBB
:10143000782F8827B85F39F0B93FCCF38695779538
:101440006795B395D9F73EF4909580957095619521
:101450007F4F8F4F9F4F0895E89409C097FB3EF44C
:1014600090958095709561957F4F8F4F9F4F9923F1
:10147000A9F0F92F96E9BB279395F695879577956F
:101480006795B795F111F8CFFAF4BB0F11F460FF2F
:101490001BC06F5F7F4F8F4F9F4F16C0882311F087
:1014A00096E911C0772321F09EE8872F762F05C09B
:1014B000662371F096E8862F70E060E02AF09A9536
:1014C000660F771F881FDAF7880F9695879597F92B
:1014D000089597F99F6780E870E060E008959FEFB6
:1014E00080EC089500240A941616170618060906BB
:1014F000089500240A94121613061406050608958A
:10150000092E0394000C11F4882352F0BB0F40F411
:10151000BF2B11F460FF04C06F5F7F4F8F4F9F4F51
:10152000089557FD9058440F551F59F05F3F71F0D3
:101530004795880F97FB991F61F09F3F79F087953A
:101540000895121613061406551FF2CF4695F1DFC3
:1015500008C0161617061806991FF1CF8695710553
:10156000610508940895E894BB2766277727CB0187
:1015700097F908950E94CD0A0C94800A0E94720A7D
:1015800038F00E94790A20F0952311F00C94690A32
:101590000C946F0A11240C94B40A0E94910A70F3FF
:1015A000959FC1F3950F50E0551F629FF001729F08
:1015B000BB27F00DB11D639FAA27F00DB11DAA1F17
:1015C000649F6627B00DA11D661F829F2227B00D64
:1015D000A11D621F739FB00DA11D621F839FA00DEF
:1015E000611D221F749F3327A00D611D231F849F3F
:1015F000600D211D822F762F6A2F11249F57504096
:101600009AF0F1F088234AF0EE0FFF1FBB1F661F10
:10161000771F881F91505040A9F79E3F510580F0D9
:101620000C94690A0C94B40A5F3FE4F3983ED4F337
:10163000869577956795B795F795E7959F5FC1F77D
:10164000FE2B880F911D9695879597F90895F8942C
:02165000FFCFCA
:10165200DC05DC0500000000F80258028502600388
:0A166200B6029402A8020D0A00006F
:00000001FF
